:020000040800F2
:100000001009002089010008C72D0008BD21000843
:10001000C52D00081B0500088535000800000000FC
:10002000000000000000000000000000652F000834
:100030007D060008000000004D2F0008672F000813
:10004000A3010008A3010008A3010008A301000800
:10005000A3010008A3010008A3010008A3010008F0
:10006000A3010008A3010008A3010008A3010008E0
:10007000A3010008A3010008A3010008A3010008D0
:10008000A3010008A3010008A3010008A3010008C0
:10009000A3010008A3010008A30100087F060008CF
:1000A000A3010008A3010008A3010008A3010008A0
:1000B000A30100080D300008A3010008A3010008F7
:1000C000A3010008A3010008A3010008A301000880
:1000D000A3010008A3010008A301000829350008B6
:1000E000A3010008A3010008A301000800F002F822
:1000F00000F03AF80AA090E8000C82448344AAF188
:100100000107DA4501D100F02FF8AFF2090EBAE885
:100110000F0013F0010F18BFFB1A43F0010318473B
:10012000E885000008860000103A24BF78C878C12E
:10013000FAD8520724BF30C830C144BF04680C60ED
:10014000704700000023002400250026103A28BF35
:1001500078C1FBD8520728BF30C148BF0B60704739
:100160001FB51FBD10B510BD00F0A2F91146FFF775
:10017000F7FF04F09BFD00F0C0F903B4FFF7F2FFB6
:1001800003BC00F0C3F90000094880470948004754
:10019000FEE7FEE7FEE7FEE7FEE7FEE7FEE7FEE737
:1001A000FEE7FEE704480549054A064B7047000094
:1001B000C92F0008ED0000081003002010090020DE
:1001C000100500201005002010B54C1084EA5304DF
:1001D00004D54042C1F1000138BF491E1B4204D57D
:1001E0005242C3F1000338BF5B1E00F083F814F0E5
:1001F000804F04D04042C1F1000138BF491E14F0C5
:10020000004F04D05242C3F1000338BF5B1E10BD43
:100210000FB41CB5074B06AA7B44694600900598AD
:1002200000F0EFF80020694600F0FEF81CBC5DF815
:1002300014FB00000D02000040EA010310B59B070B
:100240000FD1042A0DD310C808C9121F9C42F8D040
:1002500020BA19BA884201D9012010BD4FF0FF30F1
:1002600010BD1AB1D30703D0521C07E0002010BD07
:1002700010F8013B11F8014B1B1B07D110F8013B93
:1002800011F8014B1B1B01D1921EF1D1184610BD74
:1002900002F0FF0343EA032242EA024200F0CBB835
:1002A0004FF0000200B5134694469646203922BF0F
:1002B000A0E80C50A0E80C50B1F12001BFF4F7AF5A
:1002C000090728BFA0E80C5048BF0CC05DF804EB3C
:1002D000890028BF40F8042B08BF704748BF20F8AA
:1002E000022B11F0804F18BF00F8012B70477047A8
:1002F0007047704753EA020C00F069802DE9F04B1B
:100300004FF00006002B1FBFB3FA83F503FA05F484
:1003100024FA05F65E4012BF1643B2FA82F502FADD
:1003200005F4C5F120051EBF22FA05FC44EA0C04C1
:10033000203556EA044C4FEA144418BF641C4FF0B1
:1003400000084FF00009904271EB030C39D30029EB
:1003500019BFB1FA81F701FA07F6B0FA80F700FA8F
:1003600007F6C7F120071EBF20FA07FC46EA0C0675
:100370002037B6FBF4FCA7EB0507103F07F01F0B77
:10038000CBF120060CFA0BFB2CFA06F644BFB34661
:100390000026202FA4BF5E464FF0000B5BEA060C40
:1003A00008BF4FF0010B19EB0B09ABFB027C48EBCC
:1003B0000608C01B06FB02CC0BFB03CC71EB0C0147
:1003C000C1E70B46024641464846BDE8F08B13B5EF
:1003D0004FF000004FF00001AFF30080BDE81C407B
:1003E000704710B500F048F8006810BD10B504461D
:1003F00000F042F8046010BD01694A1C02610878EF
:10040000704700B58FB0CDE9013100210591054954
:100410007944CDE903101146684600F031F80FB079
:1004200000BD0000E5FFFFFF0A6802F8010B0A604B
:1004300070474FF000020429C0F0128010F0030C46
:100440003FF430AFCCF1040CBCF1020F18BF00F840
:10045000012BA8BF20F8022BA1EB0C01FFF722BF54
:100460005FEAC17C24BF00F8012B00F8012B48BFD4
:1004700000F8012B7047000000487047B0020020D0
:100480002DE9F04106460024D6E90170F568804662
:10049000304603E04146B847641C3046A847002870
:1004A000F8D12046BDE8F08100487047B002002036
:1004B0007546FFF7F9FFAE4605006946534620F042
:1004C0000700854618B020B5FFF76CFEBDE8204058
:1004D0004FF000064FF000074FF000084FF0000B00
:1004E00021F00701AC46ACE8C009ACE8C009ACE8B3
:1004F000C009ACE8C0098D46704710B50446AFF39B
:1005000000802046BDE81040FFF737BE01491820A3
:10051000ABBEFEE7260002007047FEE710B5801C68
:10052000C4B2102040EA141002F0E8FC04F00F00FE
:10053000BDE8104002F0E2BC2DE9F041454802F070
:1005400006FD454CA063454802F001FD404204F120
:100550004802111FE063081F04F044FCA21D911E15
:10056000881E02F01AF904F10C02911E881E02F096
:10057000FBF83B4800266FF00903007801280DD0F6
:100580003848007801280CD0A66537483749A56D52
:1005900000780F7850EA070105D005E00A20A06531
:1005A000F3E7A365F1E7E665012802D1E26D1E3AA3
:1005B000E265E26D012F01D11E32E265962A01DD6E
:1005C000962204E06FF0950C624500DA6246E2651F
:1005D00021B1012805D0012F03D003E02448A062F7
:1005E00000E0A6622348007808B1184600E02846DB
:1005F000D4E90E1202F0C8FF2065B4F9020006F03B
:10060000CDFA06461C49606C06F062F90546206D7D
:1006100006F0C4FA216906F05BF93246294603F078
:1006200009F8E064B4F9060006F0B8FAE16D02F0EA
:100630005DFE6065E16C0A1A08440749C4E91820A8
:100640006431081F02F03AF8D4E91801BDE8F0411E
:1006500002F04AB838010020680000201002002093
:100660000100002002000020030000200400002000
:100670009A99193F180000200000E8407047202098
:1006800000F086B872B6FEE710B590F8211000228F
:10069000022905D00421816380F82020012010BDAB
:1006A00001680B6823F00E030B6001680B6823F0F0
:1006B00001030B6090F84030C46B012101FA03F391
:1006C000636080F8211080F82020104610BD0000E3
:1006D00010B590F821100024022903D00421816371
:1006E00001243DE001680A6822F00E020A600168F8
:1006F0000A6822F001020A601A4A0168914201D197
:10070000012121E0174A1432914201D110211BE04E
:10071000144A2832914201D1891515E0114A3C3220
:10072000914201D189140FE00E4A5032914202D118
:100730004FF4803108E00B4A6432914202D14FF409
:10074000801101E04FF08071064A083A51600121A2
:1007500080F82110002180F82010416B01B18847FA
:10076000204610BD0800024070B5044600F016F99E
:100770000546601C02D004480078044400F00EF9DD
:10078000401BA042FAD370BD080000207047000053
:10079000044910B50A68024202D00860FFF7F6FF6C
:1007A00010BD0000140401402DE9F84FDFF8B891A6
:1007B0000024A9F1040B23460F2709F1040AABF129
:1007C000040EC9E00125A5402A40AA427DD1674E0A
:1007D000D1F804C0ACEB0608B44532D014DCBCF14F
:1007E000030F3AD009DCBCF1000F2AD0BCF1010F95
:1007F0001CD0BCF1020F31D11DE0BCF1110F17D09C
:10080000BCF1120F2AD119E0B8F5881F19D006DC07
:10081000B8F5803F15D0B8F5801F1FD111E0B8F5AD
:10082000001F0ED0B8F5041F18D10AE0CB6815E000
:10083000CB681B1D12E0CB6808330FE0CB680C338C
:100840000CE08B682BB1012B4FF0080303D04561FE
:1008500004E0042302E0056100E00023FF2A01D840
:10086000064601E000F104064FEA840501D9A5F12E
:100870002005D6F8008007FA05FC28EA0C0803FAE0
:1008800005F548EA0508C6F800804D68ED0062D518
:10089000374DAE6946F00106AE61AD6924F003063E
:1008A00005F001050095334D06EB050CDCF808500A
:1008B000A607360F07FA06F825EA0805DFF8B8801C
:1008C000404503D14FF0000817E044E0DFF8AC806A
:1008D000404502D14FF001080FE0DFF8A480404509
:1008E00002D14FF0020808E0DFF89880404502D1BD
:1008F0004FF0030801E04FF0040808FA06F848EA50
:100900000508CCF808804D68D9F80060ED024D4626
:1009100001D5164300E096432E604D68DAF800607A
:10092000AD02554601D5164300E096432E604D6852
:10093000DBF80060AD035D4601D5164300E0964349
:100940002E604D68DEF80060ED03754601D5164354
:1009500000E096432E60641C0D682A46E5407FF453
:1009600031AFBDE8F88F000008040140000011100D
:10097000001002400000014000080140000C01404E
:1009800000100140001401408068084000D00120A0
:1009900070470AB1016170470904FBE701488068AC
:1009A000704700000800002070B5040025D094F8BE
:1009B0003D00002520B984F83C50204600F050F955
:1009C000242084F83D002068016821F001010160C5
:1009D0002068016841F4004101602068016821F449
:1009E0000041016000F0A2FA4D4A6168914201D8CD
:1009F0004C4900E04C49884201D2012070BD4B496E
:100A00002368B0FBF1F15E6826F03F060E435E609E
:100A10006368934206D94FF4967359434FF47A733F
:100A2000B1FBF3F12368491C1E6A26F03F063143EF
:100A300019626168914210D84900401EB0FBF1F282
:100A4000521CC2F30B02042A01D2042022E0B0FBA4
:100A5000F1F0401CC0F30B001CE0A268F2B301EB04
:100A6000C10303EB0116431EB3FBF6F35B1C43F417
:100A700080431B0549D092B301EBC10202EB011187
:100A8000401EB0FBF1F0401CC0F30B0040F480406E
:100A900040F400402168CA694CF6FF739A43104342
:100AA000C861D4E9071001432068026822F0C0023F
:100AB00011430160D4E9030101432068826848F2D0
:100AC000FF339A4311438160D4E90501084321684B
:100AD000CA6822F0FF021043C86001E00EE016E091
:100AE0002068016841F0010101602564202084F83C
:100AF0003D00256384F83E50002070BD01EB4106A7
:100B0000431EB3FBF6F35B1CB3E70120C2E701EB26
:100B10004101401EB0FBF1F0401CC0F30B00B7E7F1
:100B2000A086010080841E0000093D0040420F00A5
:100B30002DE9FF4F83B09A46DDE9119793460446AD
:100B4000DDF84080FFF72AFF054694F83D00202895
:100B50007FD11923012240492046009501F0C6FBB0
:100B6000002876D194F83C00012872D0012084F846
:100B70003C0020680168C90703D1016841F0010108
:100B800001602068016821F400610160212084F87F
:100B90003D00402084F83E0000262664C4F82480EE
:100BA000A4F82A90608D20852C48E062CDE900757C
:100BB00053465A462046049901F018FB70B930E0BC
:100BC0002A463946204601F037FC58B1206C0428EB
:100BD00004D12068016841F400710160012007B070
:100BE000BDE8F08F606A216800780861606A401C87
:100BF0006062218D491E89B22185628D521E6285F7
:100C000022685369DB435B070BD469B1007810613C
:100C1000606A401C6062208D401E2085608D401EF1
:100C20006085208D0028CBD12A463946204601F028
:100C300031FB0028CAD154F83D0B016841F4007122
:100C40000160202004F81E09E67766770020C6E7D9
:100C5000FFE70220C3E70000020010000000FFFFD2
:100C600010B586B0002100910191029103910068B6
:100C70001349884222D1134CA06940F00800A061BA
:100C8000A069694600F0080004904FF4407000909D
:100C900012200190032003900B48FFF785FD0B48BD
:100CA000416841F0E06141F002014160E06940F4D7
:100CB0000010E061E06900F40010049006B010BD7F
:100CC0000054004000100240000C014000000140B0
:100CD0000248816802781144816070470800002052
:100CE000074810B5016841F010010160032000F0D1
:100CF00075F80F2000F006F800F024F8002010BD71
:100D00000020024070B50D4D04464FF47A712878EA
:100D1000B1FBF0F00A490968B1FBF0F000F0DCFA31
:100D200048B9102C07D200222146501E00F036F898
:100D300000206C6070BD012070BD00000800002024
:100D4000140000200C4808B5816941F0010181615F
:100D5000816901F001010091C16941F08051C161D7
:100D6000C06900F0805000900448416821F0E061C3
:100D700041F00071416008BD0010024000000140D8
:100D8000002809DB00F01F0201219140400980008A
:100D900000F1E020C0F8001170470000F0B40E4BE5
:100DA0001B680C46C3F30223C3F10705042D00D9C9
:100DB0000425191D072901D2002300E0DB1E0126AE
:100DC00006FA05F1491E214099409E40761E1640C4
:100DD0003143F0BC02F072BC0CED00E0064900F0BB
:100DE000070208684FF6FF03184040EA0220034A52
:100DF00010430860704700000CED00E00000FA05A9
:100E00002DE9F0470F46050061D0434E306800F0F1
:100E10000700B84209D2306820F00700384330603C
:100E2000306800F00700B84251D128683B4C810778
:100E300012D5400703D5606840F4E0606060287810
:100E4000000703D5606840F4605060606068A9687E
:100E500020F0F000084360602878C00728D0686858
:100E6000012810D02168022810D0890700292EDA25
:100E7000616821F0030101436160FFF78FFD804647
:100E800041F288390DE021688903EFE78901EDE738
:100E9000FFF784FDA0EB0801494502D90320BDE816
:100EA000F0876068696800F00C00B0EB810FEFD14B
:100EB000306800F00700B8420BD9306820F0070016
:100EC00038433060306800F00700B84201D001209C
:100ED000E5E72878400705D56068E96820F4E06018
:100EE000084360602878000706D56068296920F407
:100EF000605040EAC100606000F038F86168084A5C
:100F0000C1F30311515CC8400649086006480068F7
:100F1000FFF7F8FE0020C2E7002002400010024068
:100F2000D86F0008140000200C0000200448054978
:100F300000684968044AC1F30221515CC840704707
:100F40001400002000100240E86F00080448054922
:100F500000684968044AC1F3C221515CC840704727
:100F60001400002000100240E86F00080E4A51688B
:100F70000E4801F00C03042B11D0082B0FD10C48A4
:100F8000C1F38343C903C05C0AD55168084AC1F361
:100F90004041921E515C054A5043B0FBF1F070474E
:100FA00004494843704700000010024000127A00D4
:100FB000C86F000800093D002DE9F84F040070D00B
:100FC0002078C04DC00749D06868C0F3810001286F
:100FD00007D06868C0F38100022809D16868C0039F
:100FE00006D52868800339D560680028E7D035E049
:100FF0006068B0F5803F0BD010B1B0F5A02F11D0D4
:10100000286820F480302860286820F4802002E0DE
:10101000286840F480302860606890B1FFF7BEFC1B
:1010200006460AE0286840F480202860F0E700BF08
:10103000FFF7B4FC801B642873D828688003F7D5B9
:101040000CE0FFF7ABFC064605E000BFFFF7A6FC8F
:10105000801B6428F0D828688003F7D420789A4E43
:1010600080074FF001094FF0000839D5686810F08B
:101070000C0F07D06868C0F38100022809D16868A6
:10108000C00306D42868800714D52069012808D138
:1010900010E02069B0B1C6F80090FFF77FFC07466A
:1010A00005E00AE1FFF77AFCC01B0228C4D82868D3
:1010B0008007F7D52868616920F0F80040EAC10090
:1010C00028600DE0C6F80080FFF768FC074604E0E2
:1010D000FFF764FCC01B022823D828688007F7D4D8
:1010E000207800072CD57948A169D9B1C0F80090C3
:1010F000FFF754FC074604E0FFF750FCC01B022832
:101100000FD8686A8007F7D571484FF4FA51006824
:10111000B0FBF1F0009000BF0098411E0091FAD2A0
:101120000EE080E0C0F80080FFF738FC074604E0DE
:10113000FFF734FCC01B022875D8686A8007F7D413
:101140002078400760D5E8690027C00008D4E86926
:1011500040F08050E861E869012700F0805000907D
:101160005C480168C90513D40168834641F4807165
:101170000160FFF713FC824606E000BFFFF70EFC9C
:10118000A0EB0A0064284ED8DBF80000C005F5D5B6
:10119000E06801280AD008B1052813D0286A20F099
:1011A00001002862286A20F0040002E0286A40F06A
:1011B00001002862E06841F2883B98B1FFF7EEFB3E
:1011C00082460BE0286A40F004002862EEE700BF88
:1011D000FFF7E4FBA0EB0A0159455AD8286A8007BB
:1011E000F6D50CE0FFF7DAFB824605E0FFF7D6FB09
:1011F000A0EB0A0159454CD8286A8007F6D41FB1E4
:10120000E86920F08050E861E06988B36968C1F35B
:101210008101022944D00228C6F8608004D0FFF77B
:10122000BDFB044638E034E0FFF7B8FB074604E0B6
:10123000FFF7B4FBC01B02282BD828688001F7D425
:10124000206AB0F5803F05D16868A16820F40030BD
:1012500008436860D4E908010843696821F47411FF
:1012600008436860C6F86090FFF798FB044606E004
:1012700025E000BFFFF792FB001B022809D8286871
:101280008001F7D51BE000BFFFF788FB001B022899
:1012900002D90320BDE8F88F28688001F4D40EE05D
:1012A0000128F7D06868226A00F48031914204D1A5
:1012B000616A00F47010884201D00120EAE7002042
:1012C000E8E7000000100240000042428004424271
:1012D000140000200070004010B5401EB0F1807F67
:1012E00001D3012010BD4FF0E02460610F21601791
:1012F00002F0E4F90020A06107202061002010BD69
:101300007047704770B590F83C20012A26D0012420
:1013100080F83C40022280F83D2003685A689D68AE
:1013200022F070060A6832435A600D4B02689A42F6
:1013300008D0B2F1804F05D00A4B9A4202D00A4B36
:101340009A4204D1496825F080031943916080F8DE
:101350003D40002180F83C10084670BD022070BD61
:10136000002C0140000400400008004010B50400BB
:1013700003D094F83D0010B107E0012010BD00201B
:1013800084F83C00204600F01FF8022084F83D005D
:10139000211D206801F040FE012084F8460084F8F9
:1013A0003E0084F83F0084F8400084F8410084F84F
:1013B000420084F8430084F8440084F8450084F82F
:1013C0003D00002010BD000000B585B00021009157
:1013D00001910291039101681748B1F1804F22D029
:1013E000164A91421DD1C16941F00201C161C16932
:1013F00001F002010491816941F008018161806975
:10140000694600F008000490012000900C48FFF7A6
:10141000CBF9002211461D20FFF7C0FC1D20FFF76D
:10142000AFFC05B000BDC16941F00101C161C069F7
:1014300000F001000490F4E70010024000040040B6
:10144000000C014090F83D10012901D001207047A7
:10145000022180F83D1000680B49884208D0B0F1A5
:10146000804F05D00949884202D00949884204D1F9
:10147000816801F00701062903D0016841F00101EC
:101480000160002070470000002C01400004004073
:101490000008004070B5044690F83C000025012883
:1014A00017D0012684F83C60022084F83D002068B3
:1014B000826822F0770222F47F4282600868502816
:1014C00038D00DDC20284FD005DC90B3102811D186
:1014D0004AE0022070BD302846D040280AD13BE0C7
:1014E00060282FD070280DD0B0F5805F03D0B0F504
:1014F000005F12D0012584F83D60002084F83C0094
:10150000284670BDCB68D1E90121206801F0CDFDEE
:101510002068816841F0770109E0CB68D1E90121B9
:10152000206801F0C2FD2068816841F4804181603B
:10153000E1E719E0CA684968206801F06BFE5021B4
:10154000206806E0CA684968206801F0A1FE6021B1
:10155000206801F0B4FDCEE7CA684968206801F050
:1015600059FE40212068F4E7226801461046F0E762
:101570002DE9F0410D46040003D094F83D0018B168
:1015800008E00120BDE8F081002084F83C002046FE
:1015900000F040F8022084F83D002068816844F2A1
:1015A000070291438160211D206801F035FD22680A
:1015B00090689169166A2B68AF69034340F2033063
:1015C000814341EA0721A868EF6908434FF6FC41CF
:1015D0008843E96840EA0720014328692F6A00012F
:1015E00040EA0730084369686D6926F0220646EA3A
:1015F0000515294393602268906154F8460B0162F7
:10160000012004F81F09E0752076E0762077A075A8
:101610000020B7E700B585B000210091019102914B
:1016200003911B4A01681B48914215D1816941F41D
:1016300000618161816901F400610491816941F077
:10164000040181618069694600F0040004904FF450
:1016500040700090104816E0104A914215D1C169BF
:1016600041F00401C161C16901F004010491816983
:1016700041F0080181618069694600F0080004902A
:10168000C02000900648FFF78FF805B000BD0000AD
:10169000002C0140001002400008014000080040FA
:1016A000000C014070B590F83E60044690F83F5041
:1016B00090F8423090F84320022021B104290ED046
:1016C000012E1BD114E0012E18D1012B16D184F864
:1016D0003E0084F8420001220021206820E0012D14
:1016E0000CD1012A0AD184F83F0084F8430014E0A9
:1016F000012D03D1012B01D1012A01D0012070BDA0
:1017000084F83E0084F83F0084F8420084F84300E7
:1017100001220021206801F0BBFC01220421206885
:1017200001F0B6FC2068016841F001010160002071
:1017300070BD000070B50546194885422ED10821BC
:10174000284600F06AFB174C0C216060284600F028
:1017500064FBA0606168814220DA401A04F05FFDFA
:10176000114A124B04F0AEFD4FF0FF3205F0BFFB03
:1017700000220F4BC4E9040104F068FD03D90D49B0
:101780000020C4E90401D4E9040100220A4B04F05A
:101790005DFD01D8012000E00020207070BD000038
:1017A000C8010020180000209CC420B07268A13F2E
:1017B0000000494000005940000024402DE9F0415C
:1017C000054690F83C0000260C46012810D0012068
:1017D00085F83C0072B1042A1CD0082A2CD00C2AAF
:1017E00050D00126002085F83C003046BDE8F0814D
:1017F0000220FBE7D4E90012E368286801F01CFD31
:101800002868816921F00C01816128688169A268DA
:1018100011430FE0D4E90012E368286801F04AFDA3
:101820002868816921F44061816128688169A26822
:1018300041EA02218161D5E72868D4E9002C277BA1
:10184000036A016A21F480710162C16923F40073A3
:1018500021F0030141EA0C0121F0F00C39074FF4AB
:1018600000774CEA116107EA02221A43C161026261
:101870002868C16921F00C01C1612868C169A268AA
:1018800011432BE02868D4E90021E768036AD0F807
:1018900020C02CF4805CC0F820C0D0F81CC023F419
:1018A00000532CF4407C4CEA012121F4704C4FF69B
:1018B000FF7101EA07314FF4005741EA0C0107EAD2
:1018C00002321A43C16102622868C16921F4406191
:1018D000C1612868C169A26841EA0221C16181E74A
:1018E00010B5040003D094F83D0010B107E00120CA
:1018F00010BD002084F83C00204600F01EF80220B5
:1019000084F83D00211D206801F086FB012084F849
:10191000460084F83E0084F83F0084F8400084F8D4
:10192000410084F8420084F8430084F8440084F8BD
:10193000450084F83D00002010BD704710B50446F6
:1019400051B104290DD0082910D094F8410094F821
:101950004520012811D10EE094F83E0094F8422071
:10196000F7E794F83F0094F84320F2E794F840003A
:1019700094F84420EDE7012A01D0012010BD022097
:1019800019B3042926D0082929D084F8410084F805
:1019900045000122206801F07BFB13492068884242
:1019A00008D0B0F1804F05D01049884202D01049CC
:1019B000884204D1816801F00701062903D001683B
:1019C00041F001010160002010BD84F83E0084F860
:1019D0004200DEE784F83F0084F84300D9E784F84A
:1019E000400084F84400D4E7002C0140000400408B
:1019F0000008004030B50446002551B104290DD03F
:101A0000082910D094F8410094F84520012811D1FC
:101A10000EE094F83E0094F84220F7E794F83F0077
:101A200094F84320F2E794F8400094F84420EDE75E
:101A3000012A01D0012030BD022059B1042912D061
:101A4000082919D084F8410084F845000C2938D0C1
:101A5000012534E084F83E0084F842002068C26822
:101A600042F0020210E084F83F0084F8430020684E
:101A7000C26842F0040207E084F8400084F84400A1
:101A80002068C26842F00802C2600122206801F0AA
:101A9000FFFA0E492068884208D0B0F1804F05D087
:101AA0000B49884202D00B49884204D1816801F079
:101AB0000701062903D0016841F0010101602846B1
:101AC00030BD2068C26842F01002DDE7002C014002
:101AD00000040040000800402DE9F0410446006881
:101AE000C66805694FF00007A90713D5B10711D5DE
:101AF000F91E016101202077206880698007204657
:101B000002D0FFF717FE04E000F0A2F8204600F034
:101B100034F92777680716D5700714D521686FF058
:101B200004000861022020772068806910F4407F5B
:101B3000204602D0FFF7FEFD04E000F089F82046C1
:101B400000F01BF92777280715D5300713D5216832
:101B50006FF008000861042020772068C0698007C2
:101B6000204602D0FFF7E6FD04E000F071F82046C1
:101B700000F003F92777E80616D5F00614D521689A
:101B80006FF010000861082020772068C06910F409
:101B9000407F204602D0FFF7CDFD04E000F058F86A
:101BA000204600F0EAF82777E80708D0F00706D0CB
:101BB00021686FF001000861204600F02DF9280629
:101BC00008D5300606D521686FF0800008612046F0
:101BD000FFF796FB680608D5700606D521686FF0FA
:101BE00040000861204600F02DF9A8060AD5B0068D
:101BF00008D521686FF0200008612046BDE8F0415B
:101C0000FFF77FBBBDE8F08100B585B000210091F2
:101C10000191029103910068B0F1804F11D10A48FF
:101C2000816941F0040181618069694600F0040026
:101C30000490092000900220019003900348FEF7D1
:101C4000B3FD05B000BD00000010024000080140D7
:101C5000704770B5044690F83C0000260D460128F8
:101C60000FD0012084F83C006AB1042A1DD0082A54
:101C70002FD00C2A3FD00126002084F83C003046AB
:101C800070BD022070BD206801F022FA20688169D1
:101C900041F0080181612068816921F004018161BE
:101CA000206881692A69114311E0206801F038FA3F
:101CB0002068816941F4006181612068816921F4B3
:101CC00080618161206881692A6941EA022181611C
:101CD000D2E7206801F050FA2068C16941F008019C
:101CE000C1612068C16921F00401C1612068C16936
:101CF0002A69114311E0206801F06AFA2068C1697D
:101D000041F40061C1612068C16921F48061C16151
:101D10002068C1692A6941EA0221C161ACE710B5B6
:101D2000040003D094F83D0010B107E0012010BD7D
:101D3000002084F83C00204600F01EF8022084F8C1
:101D40003D00211D206801F067F9012084F846005C
:101D500084F83E0084F83F0084F8400084F8410095
:101D600084F8420084F8430084F8440084F8450075
:101D700084F83D00002010BD7047704710B5044640
:101D8000022249B104290ED0082913D094F8410049
:101D9000012816D0012010BD94F83E000128F9D189
:101DA00084F83E200FE094F83F000128F2D184F837
:101DB0003F2008E094F840000128EBD184F840204F
:101DC00001E084F841200122206801F061F90F4907
:101DD0002068884203D1426C42F400424264206889
:101DE000884208D0B0F1804F05D00949884202D01E
:101DF0000849884204D1816801F00701062903D00F
:101E0000016841F001010160002010BD002C01407B
:101E1000000400400008004070470246002041B125
:101E2000042909D008290AD00C2901D11068006CB6
:101E300070471068406B70471068806B704710687F
:101E4000C06B70477047704770470000F8B5016875
:101E500004460868CA684B6910F00F0F4FF0000580
:101E600059D003F0010602F49077374365D0C107DB
:101E700005D0D10503D5616C41F0010161644107D2
:101E800005D5D90703D0616C41F002016164810777
:101E900005D5D90703D0616C41F0040161640107E5
:101EA00007D502F02001314303D0616C41F00801F5
:101EB0006164616C00293AD0800604D5900602D591
:101EC000204601F058FA20684069616CC0F3801028
:101ED000090700D460B3204601F026FA2068406963
:101EE000400621D52068143050E8001F21F0400141
:101EF00040E80012002AF5D1E06BA8B16D494163BA
:101F0000E06BFEF7E5FB002811D0E06B416B01B000
:101F1000BDE8F040084783060FD593060DD520464F
:101F2000BDE8F84001F027BA2046FFF78DFFF8BD65
:101F30002046FFF789FF6564F8BD266B2023012E3C
:101F40007CD1C6067AD5D60678D508684868009050
:101F500048694FF00206400640D5E16B08684068CA
:101F60000004000CE8D0A28D8242E5D9E0858869A2
:101F700020282DD020680C3050E8001F21F48071FB
:101F800040E80012002AF5D12068143050E8001F04
:101F900021F0010140E80012002AF5D12068143038
:101FA00050E8001F21F0400140E80012002AF5D15E
:101FB00084F84230256320680C3050E8001F21F07F
:101FC000100140E80012002AF5D1E06BFEF75CFB3F
:101FD0006663A08DE18D401A81B22AE0A08DE18D6B
:101FE000401A81B2E08D0028A6D00029A4D0226832
:101FF0000C3252E8000F20F4907042E80007002FE6
:10200000F5D12068143050E8002F22F0010240E89A
:102010000027002FF5D184F84230256320680C306A
:1020200050E8002F22F0100240E80023002BF5D1E9
:1020300066632046FFF707FFF8BDFFE705062BD5CF
:10204000150629D594F841002128F5D1A068B0F5EE
:10205000805F01D12069B0B1206A411C21622168F2
:1020600000784860E08C401E0004000CE084E3D15E
:102070002068C16821F08001C1602068C16841F01A
:102080004001C160D8E7206A0088C0F308004860BA
:10209000206A801C2062E5E74006CDD55006CBD5EE
:1020A000CA68204622F04002CA6084F8413000F03D
:1020B00084F8C1E71933000870B5040004D094F81F
:1020C0004100002510B106E0012070BD84F84050A9
:1020D000204600F023F8242084F841002068C168DD
:1020E00021F40051C160204601F0A6F92068016981
:1020F00021F4904101612068416921F02A01416188
:102100002068C16841F40051C1606564202084F8F2
:10211000410084F842006563002070BD30B585B091
:1021200000240094019402940394006818498842A2
:102130002CD11848C16941F48021C161C16901F401
:1021400080210491816941F0080181618069124D0B
:1021500000F0080004904FF480600090022001908D
:102160000320039069462846FEF71EFBE814CDE9DC
:102170000004694628460294FEF716FB0022114629
:102180002720FEF70BFE2720FEF7FAFD05B030BD35
:102190000048004000100240000C014090F842301E
:1021A000202B01D00220704721B11AB10023036314
:1021B00001F09EB90120704770477047FEE7016843
:1021C0004A69D24352050FD46FF480624A610021FC
:1021D00040F8301F202242738173026942F00402EA
:1021E0000261017301207047002070472DE9F84318
:1021F000044600680D46DDE90897016898461646D2
:1022000041F4807101604B4600224FF001112046DD
:10221000009700F06BF848B120680068C00502D54F
:102220004FF4007020640320BDE8F883216805F0B6
:10223000FE0008613B464A461549204600F09EF8DC
:1022400088B920684169806900903A46494620462D
:1022500000F0F2F848B1206C042804D1206801682D
:1022600041F4007101600120DEE7F5B2B8F1010F21
:1022700009D02168300A08613A464946204600F0F4
:10228000DBF80028E7D1206805610020CCE70000DA
:102290000200010070B516460D4604461EE02046B9
:1022A000FFF78DFF08B1012070BD681C16D0FEF746
:1022B00075FB801BA84200D885B920684069C043DF
:1022C00040070BD5002044F8300F20216173A07324
:1022D000216941F0200121612073E4E72068406911
:1022E000C0434007DBD4002070BD00002DE9F0475B
:1022F000984617460D460446C1F30746DDF8209080
:102300002AE000BFB8F1FF3F26D0FEF747FBA0EB65
:102310000901414502D8B8F1000F1DD12068012EF6
:1023200016D0806925EA00000004000C12D00020BD
:10233000B84211D1002044F8300F20216173A073FE
:10234000216941F02001216120730120BDE8F0875F
:102350004069E7E70120EBE72068012E0AD0806999
:1023600025EA00000004000C06D00020B842C9D0C5
:102370000020EBE74069F3E70120F7E72DE9F0479C
:10238000984616460D4604464FF000094FF0200AC5
:10239000C1F3074723E020684069C043400515D4D6
:1023A0002068016841F40071016021686FF4806069
:1023B0004861C4F8309084F83DA084F83E90216CC8
:1023C00041F00401216484F83C9021E0701C06D0A7
:1023D000FEF7E4FAA0EB0800B04203D816B1012FD3
:1023E0001FD021E02068012F15D0806925EA000068
:1023F0000004000C18D000BF44F8309F84F80DA0F2
:1024000084F80E90216941F02001216184F80C903C
:102410000120BDE8F087406925EA00000004000CB7
:10242000EAD12068406901E02068806925EA00005F
:102430000004000CAFD1ECE770B516460D4604461B
:102440001EE02046FFF7BBFE08B1012070BD681CEE
:1024500016D0FEF7A3FA801BA84200D885B92068E1
:102460004069C04300060BD5002044F8300F2021FE
:102470006173A073216941F0200121612073E4E7B9
:1024800020684069C0430006DBD4002070BD000016
:1024900010B50E4C002208212046FEF77AFA00F013
:1024A00017F8012210212046FEF773FA00F010F809
:1024B000002210212046FEF76CFA00F009F82046B1
:1024C0000122BDE810400821FEF763BA000C01406C
:1024D0000020401CC0B20A28FBD370470C4800B54E
:1024E000816985B041F0080181618069694600F029
:1024F0000800049018200090032003901120019000
:102500000448FEF751F900F09DF805B000BD000049
:1025100000100240000C014010B50C4C01220821B3
:102520002046FEF736FAFFF7D3FF0122102120469E
:10253000FEF72FFAFFF7CCFF002210212046FEF70E
:1025400028FABDE81040FFF7C3BF0000000C0140AF
:102550002DE9F0410024134E074625466006040E7F
:10256000012210213046FEF714FAFFF7B1FF0821CF
:102570003046FEF709FA08B1641CE4B200221021CB
:102580003046FEF706FAFFF7A3FF6D1CEDB2082DEB
:10259000E4D327B1FFF77CFF2046BDE8F081FFF7C9
:1025A000BBFFF9E7000C014070B5154E054600244D
:1025B000280601D5012200E0002208213046FEF75E
:1025C000E8F9FFF785FF012210213046FEF7E1F917
:1025D000FFF77EFF002210213046FEF7DAF9072CC4
:1025E00004D1012208213046FEF7D3F96806050E12
:1025F000FFF76EFF641CE4B2082CD9D370BD000055
:10260000000C014010B50E4C012208212046FEF7B7
:10261000C0F9012210212046FEF7BBF9FFF758FF51
:10262000002208212046FEF7B4F9FFF751FF0022EF
:1026300010212046FEF7ADF9BDE81040FFF748BF76
:10264000000C014010B50A4C002208212046FEF77C
:10265000A0F9012210212046FEF79BF9FFF738FF71
:1026600020460122BDE810400821FEF792B9000083
:10267000000C014070B5104D012208212846FEF7DC
:1026800088F9FFF725FF012210212846FEF781F97E
:10269000FFF71EFF08212846FEF776F908B101244E
:1026A00000E00024002210212846FEF772F9FFF70F
:1026B0000FFF204670BD0000000C014003684FF47E
:1026C000E152934200DD02600B68934200DD0A6034
:1026D000044A0368934200DA02600868904200DA14
:1026E0000A607047E0E3FFFF2DE9F0410D461B4E05
:1026F000041E4FF480414FF4004705DD01223046AF
:10270000FEF747F9002204E000223046FEF741F9C7
:10271000012239463046FEF73CF9002C00DA6442CB
:102720000F4E306844630F4C002D06DD002220213F
:102730002046FEF72EF9012205E001222021204645
:10274000FEF727F9002240212046FEF722F9002D4E
:1027500000DA6D4230680564BDE8F0810010014088
:1027600080010020000801407CB514460D46064655
:102770006B4606223B21682000F080F800280BD130
:10278000BDF8001049BA3180BDF8021049BA29805D
:10279000BDF8041049BA21807CBD7CB514460D46B5
:1027A00006466B4606224321682000F067F80028A1
:1027B0000BD1BDF8001049BA3180BDF8021049BAFA
:1027C0002980BDF8041049BA21807CBD10B5FFF7FF
:1027D00085FE80216B2000F0C0F86420FDF7C4FF67
:1027E00000216B2000F0B9F8032000F082F80020EF
:1027F00000F07AF8642000F099F80021382000F009
:10280000ACF800216A2000F0A8F80021232000F095
:10281000A4F88021372000F0A0F8752000F011F80E
:10282000682801D0012010BD01216B2000F095F82F
:1028300000216C2000F091F8642000F077F800206F
:1028400010BD10B50446FFF7DDFED020FFF7ACFE4B
:10285000FFF710FF2046FFF7A7FEFFF70BFFFFF77C
:10286000D1FED120FFF7A0FEFFF704FF0020FFF705
:102870006FFE0446FFF7E6FE204610BD2DE9F0414D
:102880001D4614460F460646FFF7BCFE7006000EB6
:10289000FFF78AFEFFF7EEFE20B1FFF7D3FE01201F
:1028A000BDE8F0813846FFF77FFEFFF7E3FEFFF754
:1028B000A9FE012000EB4600C0B2FFF775FEFFF74E
:1028C000D9FE09E0012C0DD05FF00100FFF740FEBA
:1028D000641E05F8010BE4B2002CF3D1FFF7B2FE41
:1028E0000020DDE70020F1E7C006010E1C2000F00B
:1028F00034B8C006010E1B2000F02FB8BC2801D34D
:10290000012110E0622801D302210CE02A2801D322
:10291000032108E0142801D3042104E00A2801D38C
:10292000052100E006211A2000F017B810B5044672
:102930004FF47A70844201D9044602E0042C00D29C
:102940000424B0FBF4F0401EC1B2192000F005F8D9
:102950006008BDE81040FFF7D1BF70B50C460546D2
:10296000FFF750FED020FFF71FFEFFF783FE50B9A0
:102970002846FFF719FEFFF77DFE2046FFF714FEFD
:10298000FFF778FE18B1FFF75DFE012070BDFFF77D
:1029900059FE002070BD2DE9F0411E4615460F4638
:1029A0000446FFF72FFE6006000EFFF7FDFDFFF760
:1029B00061FE60B93846FFF7F7FDFFF75BFE0024C4
:1029C0000CE0305DFFF7F0FDFFF754FE20B1FFF79C
:1029D00039FE0120BDE8F081641CE4B2AC42F0D3C2
:1029E000FFF730FE0020F5E72DE9F04385B0002623
:1029F00046480096019602960396816941F01001BF
:102A00008161816901F010010491816941F0200127
:102A10008161816901F020010491816941F0040123
:102A20008161816901F004010491816941F008012B
:102A300081618069364F00F00800049000224FF455
:102A400040413846FDF7A5FFDFF8C88000224FF46B
:102A500006614046FDF79DFFDFF8BC90002241F281
:102A600018014846FDF795FF02244FF480400125E8
:102A700003948DE8610069463846FDF795FEA00392
:102A80000090CDE90154694638460394FDF78CFE69
:102A9000224F6946CDE9004740460295FDF784FE86
:102AA00060200090CDE90154694640460394FDF74B
:102AB0007BFEE0020090CDE901546946484603944C
:102AC000FDF772FEA00203948DE86100694640465E
:102AD000FDF76AFE182003948DE8610069464846B8
:102AE000FDF762FE2020CDE90007694602954846C1
:102AF000FDF75AFE002211461720FEF74FF9172066
:102B0000FEF73EF905B0BDE8F0830000001002407A
:102B10000010014000080140000C0140000021109D
:102B20000D4810B50B4901600C49416000214FF47C
:102B300080428160C0E9031241618161C16101622B
:102B4000FDF732FF002803D0BDE81040FDF79ABD25
:102B500010BD000000540040E4000020A0860100E9
:102B600010B58CB024216846FDF79AFB0024174865
:102B7000099415490A94C0E900144FF6FF71C0E9A1
:102B800002410461446184610120CDE900040F2108
:102B90000222CDE90204CDE904120690CDE90741F5
:102BA00069460A48FEF7E4FC08B1FDF76BFD09949D
:102BB00009A906480A94FEF7A5FB002801D0FDF7F5
:102BC00061FD0CB010BD0000002C01403801002058
:102BD00010B58EB000240794089409940A940B94BD
:102BE0001C2168460C94FDF75BFB21484FF08041A7
:102BF000C0E9001441F61F41C0E90241046184614B
:102C0000FEF7B4FB08B1FDF73DFD4FF4805007908F
:102C100007A91748FEF73EFC08B1FDF733FD14483D
:102C2000FFF77DF808B1FDF72DFD0B940BA91048B7
:102C30000C94FEF767FB08B1FDF724FD6020CDE999
:102C4000000402940022694609480494FFF701F841
:102C500008B1FDF717FD0C2269460548FEF7F9FF9C
:102C600008B1FDF70FFD0248FEF7CEFF0EB010BD14
:102C70008001002010B58AB00024284804940594EF
:102C800006940794089409940094019402942249AC
:102C9000039401604721C0E901144FF6FF71C0E9B8
:102CA00003148461FEF762FB08B1FDF7EBFC4FF4FF
:102CB0008050049004A91948FEF7ECFB08B1FDF719
:102CC000E1FC1648FEF70CFE08B1FDF7DBFC0894AA
:102CD00008A912480994FEF715FB08B1FDF7D2FCCC
:102CE0000120CDE900400294082269460B48039474
:102CF000FEF764FD08B1FDF7C5FC022000900190CD
:102D00000C2269460548FEF759FD002801D0FDF761
:102D1000B9FC0AB010BD000000040040C80100204A
:102D200010B58CB024216846FDF7BAFA0024164885
:102D3000099414490A94C0E900144FF6FF71C0E9E0
:102D40000241046184610120CDE900040F210222C7
:102D5000CDE90204CDE904120690CDE907416946A8
:102D60000948FEF705FC08B1FDF78CFC099409A998
:102D700005480A94FEF7C6FA002801D0FDF782FC48
:102D80000CB010BD00080040100200200C4810B527
:102D90000A4901604FF416514160002181600C2204
:102DA000C160C0E904128161C161FFF785F90028A3
:102DB00003D0BDE81040FDF765BC10BD00480040E1
:102DC00058020020FEE7FEE770B50024204600F020
:102DD000B9F80020FDF7A2FB0025002000F0A0F8C4
:102DE0006D1CEDB2802DF8D3641CE4B2082CEDD339
:102DF00070BD000070B5074D0024285D00F07EF81E
:102E0000641CE4B2192CF8D3BDE8704000210846D8
:102E100000F002B8F06F000810B50446B031C8B237
:102E200000F06CF8102040EA141000F067F804F08D
:102E30000F00BDE8104000F061B800002DE9F0413E
:102E4000203A00240D468046D6B27F2803D90020C0
:102E50008D1C8046EDB2102B29460FD0FFF7DCFF0A
:102E6000164906EB460001EB4005285D00F058F8D6
:102E7000641CE4B2062CF8D3BDE8F081FFF7CCFF68
:102E80000F4F00BF04EB0610385C00F049F8641CDB
:102E9000E4B2082CF6D36D1CE9B24046FFF7BCFF44
:102EA0005FF0000404EB06103844007A00F038F8B4
:102EB000641CE4B2082CF5D3DEE7000009700008BA
:102EC000317200082DE9F041984617460E46044637
:102ED00000250DE0434631462046FFF7AFFF08349A
:102EE000E4B2782C02D90024B61CF6B26D1CEDB207
:102EF0007A5D002AEED1BDE8F081000001B584B012
:102F000001214FF4807204A88DE807000B460022CF
:102F100078210248FDF70CFE05B000BDE40000205A
:102F200001B584B001214FF4807204A88DE8070038
:102F30000B46402278210248FDF7FAFD05B000BD9E
:102F4000E4000020B030C0B2FFF7D8BF704701687E
:102F5000486A00224A6247F6FE71884201DDA0F508
:102F6000803070477047FDF7B3BE30B58FB0282171
:102F70006846FDF795F914210AA8FDF791F901219A
:102F80000804CDE900100024029402250491CDE943
:102F900007504FF4E01009906846FEF70DF808B1AD
:102FA00072B6FEE70F20CDE90A054FF48060CDE947
:102FB0000C4002210AA80E94FDF722FF002801D040
:102FC00072B6FEE70FB030BD7047000010B50D4C73
:102FD00000224FF480412046FDF7DBFC00224FF435
:102FE00000412046FDF7D5FC074C00222021204659
:102FF000FDF7CFFC20460022BDE810404021FDF740
:10300000C8BC000000100140000801400148FEF764
:1030100063BD0000C8010020F0B50268194B1A4CCE
:103020001A4D4FF08047984205D0B84203D0A042D5
:1030300001D0A84203D122F070064A683243984278
:1030400005D0B84203D0A04201D0A84203D122F457
:103050004074CA6822434C6922F080022243026015
:103060008A68C2620A688262984201D10969016372
:10307000012141610169C90703D0016921F0010102
:103080000161F0BD002C0140000400400008004038
:1030900010B501F01F030121046A99408C430462BA
:1030A000016A9A401143016210BD10B5846842EA7A
:1030B000032224F47F440A432243826010BD8268C5
:1030C00022F070020A4342F007018160704700005D
:1030D00030B5036A026A22F0010202624268846922
:1030E00024F073050C682C4323F002058B682B43F6
:1030F0000A4DA8420BD123F00805CB6822F4407298
:103100002B434D6923F0040315438A692A43426027
:10311000846149684163036230BD0000002C0140B6
:1031200030B5026A036A23F01003036243688469BE
:103130000D6824F4E64444EA05248D6822F0200258
:1031400042EA05120B4DA8420ED1CD6822F0800252
:1031500042EA05124D6923F4406343EA85038D6911
:1031600022F0400243EA8503436084614968816339
:10317000026230BD002C014030B5036A026A22F4BD
:10318000807202624268C46923F4007324F07305FC
:103190000C682C438D6843EA05230C4DA8420ED1E0
:1031A000CD6823F4006343EA05234D6922F44052BD
:1031B00042EA05128D6923F4806342EA05124260F7
:1031C000C4614968C163036230BD0000002C014046
:1031D00030B5046A026A22F4805202624268C3690E
:1031E0000D6823F4E64343EA05238D6824F4005474
:1031F00044EA0534064DA84204D14D6922F48042C8
:1032000042EA85124260C36149680164046230BDCC
:10321000002C014010B5036A046A24F00104046222
:10322000846924F0F00444EA021423F00A020A43F9
:103230008461026210BD000070B5056A046A24F062
:103240000104046284690F4EB04208D0B0F1804F8F
:1032500005D00D4EB04202D00C4EB04203D124F046
:103260000304144301E044F001041A0724F0F004BD
:1032700044EA126225F00A0301F00A01194382614F
:10328000016270BD002C01400004004000080040B5
:1032900010B5036A046A24F010040462846923F000
:1032A000A00324F4704444EA023243EA011182612B
:1032B000016210BD30B5046A056A25F0100505628B
:1032C000856925F4407545EA022222F470454FF6DF
:1032D000FF7202EA033224F0A0032A43A02404EA86
:1032E000011119438261016230BD000070B5094DC2
:1032F0000E46A96A03F07EFC0446304603F04EFCFD
:10330000696A03F077FC214603F0E2FABDE87040F9
:1033100003F008BC6800002010B5406A0021C18598
:10332000C184FEF791FD10BD01680C3151E8002FFA
:1033300022F4907241E80023002BF5D1016814318A
:1033400051E8002F22F0010241E80023002BF5D1C3
:10335000016B012909D101680C3151E8002F22F0DD
:10336000100241E80023002BF5D1202180F8421003
:1033700000210163704708B590F84210222901D05E
:10338000022008BD82684FF480539A4201D101693E
:1033900021B1816A9A421BD04AB10AE00268816A6F
:1033A0005268C2F308020A80816A891C08E0026937
:1033B00072B10268526802F07F020A70816A491C89
:1033C0008162C18D491E0904090CC18503D01BE02F
:1033D00002685268F1E70168CA6822F02002CA60F8
:1033E0000168CA6822F48072CA6001684A6922F0E2
:1033F00001024A61202180F8421000214163026BE2
:10340000012A03D0FEF7D8FE002008BD0163016841
:103410000C3151E8002F22F0100241E80023002B6C
:10342000F5D101680A68D20602D50A684968009198
:10343000818DFEF708FDE7E770B504460068016975
:10344000E26821F44051114301612169A0680843F9
:10345000616908432168CA6841F20C639A430243D8
:10346000CA6020684169A26921F440711143416139
:103470001E492068884202D1FDF768FD01E0FDF792
:1034800055FD00EBC00101EB001260686421800073
:10349000B2FBF0F3B3FBF1F36FF018067343B2FB2A
:1034A000F0F5B2FBF0F605EB8305322303EB0515CF
:1034B000B5FBF1F5B6FBF1F605F0F00505EB0615E9
:1034C000B2FBF0F6B2FBF0F0B0FBF1F06FF01802D7
:1034D000504306EB800003EB0010B0FBF1F02168D5
:1034E00000F00F002844886070BD000000380140E3
:1034F00081628285C28500214164222180F84210C8
:10350000016921B10168CA6842F48072CA60016829
:103510004A6942F001024A610068C16841F0200135
:10352000C16000207047000010B51448FEF78EFC03
:103530001348012300210278401F112A027007D08E
:10354000212A08D0812A0AD0712A41700CD000E0CB
:103550004370817001E041708370C17006E041707A
:103560008170C170037102E08170C3700171BDE8A8
:103570001040012202490148FEF710BE5802002007
:1035800005000020FEE700002DE9F047284C064624
:103590008846E06915462549814603F001FA074649
:1035A000206208EB0500861BE06A03F0F7FA616B06
:1035B000884603F01FFB0546304603F0EFFA064647
:1035C00041464FF07E5003F0EBFB314603F012FB17
:1035D000294603F07DF903F0A5FAE062216B054668
:1035E000084444F620612063884202DC4942884254
:1035F00000DA084620632078012802D100202063E9
:103600002070206B03F0CAFA394603F0F3FA04463F
:10361000284603F0C3FA494603F0ECFA214603F0CA
:1036200057F9BDE8F04703F07DBA000000004843B9
:10363000680000202DE9F041DFF850800E46074673
:103640001146D8F8180003F0D5FA03F015F904462E
:103650000D463146384603F099FB03F00DF9074655
:103660000E46D8F8140003F007F90022084B02F0C8
:1036700029FE3A46334602F025FE22462B4602F04A
:103680004FFBBDE8F04102F09BBD00006800002048
:103690000000F43F490050EAC12018BF04204A0D41
:1036A00018BF40F0010040F2FF72B2EB515F08BF5B
:1036B00040F00200012808BF052070470907090EE5
:1036C000002804DB00F1E02080F80014704700F0CF
:1036D0000F0000F1E02080F8141D70472DE9F04143
:1036E0004F1E00EBC7010446D1E9000115461E46F6
:1036F00037F006020DD02A46334602F0E3FD7F1E66
:1037000004EBC703D3E9002302F00AFB37F00602FB
:10371000F1D1022F25D0042F13D0062F18BFBDE8FA
:10372000F0812A46334602F0CDFDD4E90A2302F0A7
:10373000F7FA2A46334602F0C5FDD4E9082302F021
:10374000EFFA2A46334602F0BDFDD4E9062302F023
:10375000E7FA2A46334602F0B5FDD4E9042302F025
:10376000DFFA2A46334602F0ADFDD4E9022302F027
:10377000D7FA2A46334602F0A5FDD4E90023BDE876
:10378000F04102F0CDBA012203F0B1BB02F0C8BA99
:10379000002213461046114602F07EBB024A00206A
:1037A000110703F0A4BB000001FDFFFF2DE9FE4F50
:1037B00007460E460025684600F0F8FF00246FF02B
:1037C0000F0AE8464FF0010957F8240056F8241074
:1037D000401A00D5404203F0E1F9514603F0B5FB31
:1037E00058F8241011F0FF4F0BD003F0D9F84FF028
:1037F0007E5103F0D5FA0A4920F00040884205DCEA
:1038000007E0084908440849884202D309FA04F04D
:103810000543641C032CD7DB2846BDE8FE8F00005F
:10382000295C0F3E666666C19A99D9002DE9F04D74
:103830008D4F21F0004A86B005460C46BA452ADB7A
:10384000AAEB070028430AD08848824501DC1AD138
:10385000CDB106B02846BDE8F04DFFF794BF844ACD
:10386000844B284602F02EFD07460E46824A834BC3
:103870002846214602F026FD06B03A463346BDE80A
:10388000F04D02F04DBA0120FCF7B0FD06B0BDE8E6
:10389000F04DFFF77DBF7A48824542DABAF1795F91
:1038A0000BDA2846FFF7F6FE042808BFFFF776FF7D
:1038B000284606B02146BDE8F08D2A460B46104644
:1038C00002F000FD834602466E480E460B46062176
:1038D0007844FFF703FF5A46334602F0F3FC804674
:1038E00069488A465A46334604217844FFF7F6FE73
:1038F0005A46334602F0E6FC00223B4602F010FA3C
:1039000002460B464046514602F0C6FA2A46234676
:1039100002F0D8FC06B02A462346BDE8F04D02F07E
:10392000FFB9284624F0004100223D463B4602F004
:10393000C7FD4FF0FF3203F0DAFA0646024653485D
:103940000F460B4606217844FFF7C8FE32463B4639
:1039500002F0B8FCCDE900014D4832463B46042157
:103960007844FFF7BBFE32463B4602F0ABFC002238
:103970002B4602F0D5F9834602913046394602F0D3
:1039800077F9804643480D46504517DCDDE90001D4
:103990005A46029B02F080FA42462B4602F092FC05
:1039A00042462B4602F0BCF9012203F0A0FA304A4D
:1039B000304B02F077FE304A304B4CE04FF0000ABB
:1039C00052460B46404602F0ABF9CDE90310524691
:1039D0002B461046194602F075FC32463B4602F073
:1039E0006FFDDDE9033202F057FA06460F46DDE9C6
:1039F00000015A46029B02F04FFA834600910122D1
:103A00003046394603F073FA194A1A4B02F058FD52
:103A100006460F4601224046294603F068FA5A46F8
:103A2000009B02F04FFC32463B4602F03BFE06464E
:103A30000F4601225046294603F059FA0E4DDFF891
:103A400058802A46434602F03BFD32463B4602F090
:103A500037FD2A46434602F033FD002CD8BF81F0E3
:103A6000004106B0BDE8F08D0000F03F0000F07F9F
:103A7000075C143326A6913C182D4454FB21F93FD2
:103A80000000E03F444D00005A4D0000CE4C0000C5
:103A9000E44C00003333EF3FFB21E93F2DE9F84FC1
:103AA00004460D4621F0004000917349814211DC2B
:103AB0007249884201DC06D12CB120462946BDE876
:103AC000F84FFFF760BE6E48002DCCBF6D496E49C0
:103AD000BDE8F88F6D49814211DD6D498142D8BF43
:103AE0004FF0FF366DDD20462946FFF7D3FD042851
:103AF00008BFFFF753FE20462946BDE8F88F654909
:103B0000654F25F00045814233DD6449814219DD6E
:103B1000002632464FF080432046294602F000F945
:103B200080468A4601222046294603F0E0F9002219
:103B30003B4602F0B7FD4246534602F0ADF904465B
:103B40000D463EE001260022BA463B462046294665
:103B500002F0E6F880460F460022534620462946EA
:103B600002F0A0FD42463B4602F096F904460D469F
:103B700027E04B4981421BDDDFF828A10226002205
:103B800053462046294602F09DFB00223B4602F0A8
:103B9000C7F880460F46002253462046294602F0C9
:103BA00081FD42463B4602F077F904460D4608E0A7
:103BB000032622462B4600203B4902F06DF90446BD
:103BC0000D4622462B461046194602F07BFB8B46DB
:103BD000824602460B4602F075FB07460246334812
:103BE00088460B4606217844FFF778FD52465B462F
:103BF00002F068FB82462E488B463A464346052132
:103C00007844FFF76BFD3A46434602F05BFB024601
:103C10000B46002E504659460CDA02F081F8224637
:103C20002B4602F04FFB01B022462B46BDE8F04F79
:103C300002F046BC02F074F822462B4602F042FB2A
:103C40001C4A7A4402EBC603D3E9002302F02AFDA2
:103C500022462B4602F026FD174A7A4402EBC603A1
:103C6000D3E9002302F02CFC009A002AB8BF81F0AF
:103C70000041BDE8F88F0000000010440000F07F14
:103C8000182D4454FB21F93FFB21F9BF0000DC3F14
:103C90000000203E0000F33F0000F03F0000E63F40
:103CA000008003400000F83F0000F0BFE64A00003B
:103CB000A44A0000424A00000A4A00002DE9F04DE3
:103CC0009446CCF1000423F000464CEA0404594F1A
:103CD00046EAD4749A46884621F00042BC4206D88F
:103CE000454240EA050442EAD474BC4204D9BDE826
:103CF000F04D6246FFF74ABDAAF14055A5F17F6538
:103D000055EA0C040BD0022404EAAA744A4DDFF8E9
:103D10002CE144EAD87452EA000B04D00CE0BDE870
:103D2000F04DFFF7BBBE002C14BF012CBDE8F08D99
:103D3000022C30D0032C32D056EA0C0B0AD0BE42F3
:103D400020D1BA4209D126F0804622F08042334683
:103D5000114617E000291ADB25E0DFF8E4B0FB4448
:103D6000002C04BFDBE90001BDE8F08D012C02BF8F
:103D7000DBE9000181F00041BDE8F08D022C0AD0A2
:103D8000032C0CD0BA4212D1B8F1000F0BDA2A483A
:103D90002C49BDE8F08D28462B49BDE8F08D28461A
:103DA0007146BDE8F08D24482849BDE8F08D921B8E
:103DB00012153C2AC4BF204F244E10DCBAF1000F6C
:103DC000BEBF12F13C0F00273E4608DB624602F000
:103DD00063F821F00041FFF761FE07460E4694B1FB
:103DE000012C08BF86F000460DD0194A194B022C51
:103DF0003846314615D002F055FC2A46BDE8F04D54
:103E0000114B02F04FBC002213463846314602F0F7
:103E10009BF904BF0220FCF7E9FA38463146BDE8B9
:103E2000F08D02F03FFC2A46BDE8F04D064B02F053
:103E300047BB00000000F07F182D4454FB2109C04F
:103E40009E490000FB21F9BFFB210940FB21F93FFE
:103E5000075C143326A6A13C08B560B120208DF87C
:103E6000000028208DF8010030208DF80200382055
:103E70008DF8030004E0A32204216846FCF708FA49
:103E80006A46042140F69E2001F05CFE01F01AFB18
:103E900008BD00003EB5044602208DF80000CA208F
:103EA0008DF80100E3208DF8020009208DF8030051
:103EB0006A460421682001F045FEA3208DF8000029
:103EC000610609D5C0218DF80110C8218DF80210B6
:103ED000C2218DF8031005E08DF801008DF8020075
:103EE0008DF8030014F4C07F09D0C4218DF80410AC
:103EF000CC218DF80510C6218DF8061005E08DF84F
:103F000004008DF805008DF806008DF808008DF886
:103F100007008DF809006A460A2140F6A72001F043
:103F200011FEA0074FF0D80503D020208DF8000027
:103F300001E08DF800506A46012140F6B62001F0FC
:103F400001FEA00601D5012000E0002000F08EF85F
:103F500014F4C07F1ED0E0050AD5B2208DF8000011
:103F60008B208DF80100B6208DF802009B2009E01F
:103F7000B0208DF8000080208DF80100B4208DF86D
:103F8000020090208DF803006A46042140F6A2202A
:103F900001F0D8FDE1074FF40B6022D0F8218DF835
:103FA00000106A46012101F0CDFDFA21072000F042
:103FB00049FB072000F014FB012000F031FB6420D6
:103FC00000F0D4FB4FF4FA7000F0E0FBC821254864
:103FD00000F0CEFA282000F0E3FA0A2000F0F0FA10
:103FE00005E08DF800506A46012101F0ABFDA00705
:103FF00003D5D9208DF8000001E08DF800506A4605
:10400000012140F23D7001F09DFD600701D50120C6
:1040100000E0002000F048F8E00601D5012000E0B3
:104020000020FFF719FF104D44F00800688101F0EF
:1040300049FA0020A873600601D50620A87314F47D
:10404000C07F02D0A87B801DA87314F0140F02D08B
:10405000A87B1030A873A00702D0A87B001DA8730E
:1040600000203EBD09E3CA02A00200200EB54FF4B5
:10407000976310B106A107C901E008A207CA8DE83D
:1040800007006A460921184601F05CFD0EBD0000DC
:10409000B8AAB38DB4980D355D000000B8AAAAAADD
:1040A000B088C3C5C700000008B560B1C0208DF856
:1040B0000000C2208DF80100C4208DF80200C62047
:1040C0008DF8030004E08B2204216846FCF7E0F839
:1040D0006A46042140F6982001F034FD01F0F2F91F
:1040E00008BD0000C8234FF48062024940F6F63054
:1040F00001F0CAB8207A00082DE9FF4F89B01746B1
:10410000DDE916520024544E884681462C80A24692
:10411000B07B694601F064F94FF0FF3B18B1584697
:104120000DB0BDE8F08F708910F0140F4CD0BDF8C1
:1041300000109DF8022049BA090441EA02239DF8C3
:1041400003100B433B60BDF804109DF8062049BAEC
:10415000090441EA02229DF807101B140A437A6001
:10416000BDF808109DF80A4049BA090441EA042143
:104170009DF80B4012142143B960BDF80C409DF826
:104180000EC064BA240444EA0C2C9DF80F400914B4
:104190004CEA040CC7F80CC04FEA2C475B43494378
:1041A00002FB023207FB071111441024A1F17061D8
:1041B000B1F1007F04D901F085F9A5F800A0AEE7C0
:1041C000298841F4807129804206694611D50A196F
:1041D000A41D13885BBAA8F8003053885BBAA8F80E
:1041E0000230928852BAA8F804202A8842F00802C5
:1041F0002A8010F4C07F11D00A19A41D13885BBA5D
:10420000A9F8003053885BBAA9F80230928852BAF4
:10421000A9F804202A8842F070022A80800716D06C
:104220000C44E07800F0C00500F03F016078C00762
:1042300006D0C80801F007013268491C02B1904756
:104240006078000703D5716809B1A80988470C9800
:1042500000F09CFD002063E7A00200202DE9FF4153
:10426000044603A800F0F8FEBDF80C00410CC3039F
:104270002F48008900F0030254F82250420700D56D
:104280006D42C0F3C102860654F8222000D5524286
:10429000C0F38116C00554F8264000D56442A5FB42
:1042A0000367E81700FB037005FB0100850045EA82
:1042B0009670A2FB0367D51705FB037502FB01523D
:1042C000950045EA9672A4FB0367E51705FB0373A7
:1042D00004FB01318B0043EA9671030E8DF8003028
:1042E000030C8DF80130030A8DF802308DF80300BD
:1042F000100E8DF80400100C8DF80500100A8DF8D2
:104300000600080E8DF80800080C8DF80900080A50
:104310008DF80A008DF807208DF80B106A460C21E5
:104320004FF4257001F00EFC04B0BDE8F0810000F0
:10433000A002002030B5044613A285B007CA8DE85C
:1043400007004FF0FF35C82C16D8C820B0FBF4F199
:10435000491E080A8DF80C008DF80D1003AA0221E1
:1043600040F2162001F0EEFB30B96A460C2140F60F
:10437000C12001F0E7FB10B1284605B030BD05486B
:1043800084810020F9E70000FEF2ABC4AAF1DFDF70
:10439000BBAFDFDFA0020020F8B53049098901F08A
:1043A000030250F822404A0700D56442C1F3C1021B
:1043B0008B0650F8222000D55242C1F3811350F8E9
:1043C0002330C80500D55B42254984FB01408500A8
:1043D00045EA947082FB0142A40F44EA820483FB05
:1043E0000121950F45EA8105010E8DF80010010CA1
:1043F0008DF80110010A8DF802108DF803006A464D
:1044000004214FF4747001F09DFB4FF0FF3688B922
:10441000200E8DF80000200C8DF80100200A8DF888
:1044200002008DF803406A4604214FF4757001F0D4
:1044300089FB08B13046F8BD280E8DF80000280C25
:104440008DF80100280A8DF802008DF803506A46A5
:1044500004214FF4767001F075FBF8BDA002002036
:1044600009E3CA022DE9FF4104463CA004F003031E
:10447000006802903AA0006803903AA006683AA04B
:10448000056802A8C15C8DF80010C4F3C101425C4C
:104490008DF80120C4F38112805C8DF8020003A81E
:1044A000C35C8DF80430415C8DF80510805C8DF89C
:1044B00006006A46032140F2264001F043FB4FF01C
:1044C000FF37E0BB01AA032140F22A4001F03AFB8A
:1044D000A8BBCDE9006560070BD59DF8000040F052
:1044E00001008DF800009DF8040040F001008DF8F7
:1044F0000400A0060BD59DF8010040F001008DF8E6
:1045000001009DF8050040F001008DF80500E00570
:104510000BD59DF8020040F001008DF802009DF8D7
:10452000060040F001008DF806006A4603214FF4B2
:10453000886001F007FB10B901AA032100E004E044
:1045400040F2314001F0FEFA18B1384604B0BDE83F
:10455000F081064804810020F8E700004CCD6C0093
:104560000CC92C003656760026466600A0020020B4
:104570004FF47A7290FBF2F008B54843010E8DF8C3
:104580000010010C8DF80110010A8DF802108DF851
:1045900003006A4604214FF4AE7001F0D3FA08BD5F
:1045A0000521B0FBF1F008B5010A8DF800108DF877
:1045B00001006A4602214FF4AD7001F0C3FA08BD54
:1045C0000521B0FBF1F008B5010A8DF800108DF857
:1045D00001006A4602214FF4AC7001F0B3FA08BD45
:1045E00008B500218DF80010C10702D030218DF8E8
:1045F0000010810705D59DF8001041F00C018DF8E1
:104600000010400705D59DF8000040F003008DF82C
:1046100000006A4601214FF4A47001F093FA08BD2E
:1046200008B560B1042800D90420401E8DF80000B0
:104630006A46012140F24F1001F084FA08BD0120C2
:10464000F3E700002DE9FC41054640074FF0FF3637
:104650007CD0B1F5C86F79D8084602F0B7FA3E4968
:1046600002F09EF9074601A800F0D8FC9DF804006E
:10467000022806D004280DD008282ED0102865D195
:1046800034E00E21384602F060FC02F067FA84B292
:10469000324907E00D21384602F057FC02F05EFA7D
:1046A0002F4984B2384602F0A5FA02F057FA210ADF
:1046B0008DF8001080B28DF80140010A8DF80210CB
:1046C0008DF80300E8076C4620D0224602214FF403
:1046D000EA7001F037FAC8BB11E00C21384602F04D
:1046E00034FC02F03BFA84B21E49DBE70B2138466A
:1046F00002F02BFC02F032FA84B21B49D2E7A21C72
:1047000002214FF4927001F01DFAF8B9A8070DD5F7
:104710006A4602214FF4EC7001F014FAB0B9A21C01
:1047200002214FF4947001F00DFA78B9680710D5A2
:104730006A4602214FF4EE7001F004FA30B9A21C6F
:1047400002214FF4967001F0FDF910B13046BDE83A
:10475000FC810020FBE700000000484300004046C9
:104760000000C045000040450000C0440521B0FBEA
:10477000F1F008B5010A8DF800108DF801006A46C5
:1047800002214FF4EF7001F0DDF908BD0521B0FB07
:10479000F1F008B5010A8DF800108DF801006A46A5
:1047A00002214FF4ED7001F0CDF908BD2DE9FE4373
:1047B0000646264801AB042240680D210078FEF72A
:1047C0005DF810B10720BDE8FE839DF804101C20A1
:1047D00000EAD1029DF80710DFF87490C1F30113CD
:1047E0001A438DF800209DF80520C1F3810300EAEB
:1047F000D2021A438DF801209DF8062001F0030132
:1048000000EAD20008430024124F8DF80200A046AF
:104810006D46285D10B146F824900AE046F82480E1
:104820000DE000BF56F82400394602F0E3F946F8DF
:104830002400285D401E10F0FF002855F2D1641CB2
:10484000E4B2032CE5D30020BDE7000030000020D7
:104850007B14AE3E1D5A843F2DE9FE4F05460120D4
:10486000C14E8DF800004FF000088DF801803068CF
:104870000C461746817C70686B4602220078FEF772
:104880008AF84FF0FF3A00287AD1C820FBF76CFF76
:104890008DF8008030686B460122C17B706800781B
:1048A000FEF779F80028EFD130686B460122417994
:1048B00070680078FEF76FF80028E5D130686B4625
:1048C0000122817C70680078FEF765F80028DBD152
:1048D00030686B460122C17D70680078FEF75BF896
:1048E0000028D1D130686B460122017970680078C8
:1048F000FEF751F80028C7D14FF00C098DF8009051
:1049000030686B460122017970680078FEF743F841
:10491000002835D10F20FBF727FFB06A6B46012234
:10492000407A8DF800003068817870680078FEF772
:1049300032F8002824D1B06A6B460122007A8DF843
:1049400000003068417870680078FEF724F800288D
:1049500073D1B06A807A0FB140F0E0008DF80000AA
:1049600030686B460122817970680078FEF713F891
:10497000002862D12FB1B06AC07A40F0E00001E0B7
:104980004AE018208DF8000030686B460122C1799A
:1049900070680078FDF7FFFFF0BB17B1C820FBF788
:1049A000E3FE40208DF8000030686B46012201795B
:1049B00070680078FDF7EFFF70BB78208DF800007D
:1049C00030686B460122417970680078FDF7E3FF9B
:1049D00010BB3220FBF7C8FE8DF8008030684746D8
:1049E0006B464179706801220078FDF7D4FF98B9D1
:1049F00031687068B046897A00786B460222FDF70C
:104A00003DFF48B9BDF80000AF6040BAB0FBF9F017
:104A10006F60C6B22F6000E00FE0A760676027609C
:104A2000002739E0D8F80010D8F804006B46C97A9E
:104A300000780C22FDF722FF10B15046BDE8FE8F32
:104A4000BDF80000236840BA00B2BDF80210BDF8FE
:104A500004201844206049BA606809B208446060C4
:104A600052BAA06812B21044A060BDF806002B68CC
:104A700040BA01B2BDF80800BDF80A201944296007
:104A800040BA696800B20844686052BAA86812B2B5
:104A900010447F1CFFB2A860B742C3D328688322AA
:104AA000C117090441EA104100040023FBF78CFB05
:104AB00032460023FBF788FB286068688322C11711
:104AC000090441EA104100040023FBF77DFB324654
:104AD0000023FBF779FB6860A8688322C1170904EB
:104AE00041EA104100040023FBF76EFB324600232D
:104AF000FBF76AFBA86020684FF40065C117090442
:104B000041EA104100042A460023FBF75DFB3246D0
:104B10000023FBF759FB206060682A46C11709048F
:104B200041EA104100040023FBF74EFB324600230C
:104B3000FBF74AFB6060A0682A46C117090441EAF6
:104B4000104100040023FBF73FFB32460023FBF734
:104B50003BFBA060002802DDA0F5803001E000F5FD
:104B60008030A060002069E7300000202DE9F84F78
:104B700081462E488846002540686B46032200780F
:104B80000D21FDF77BFE10B10720BDE8F88F9DF8E1
:104B90000000002400F01F008DF800009DF80100C7
:104BA0006FF00F0B00F01F008DF801009DF8020060
:104BB0006E4600F01F008DF802004FF0010A00BFA2
:104BC00059F8241058F82400081A00D5404201F082
:104BD000E5FF594602F0B9F90746305DC0B1144807
:104BE00002E0144902F006F8315D491E11F0FF01A0
:104BF0003155F6D10146384601F0D2FE4FF07E51D4
:104C000002F0CEF80C4920F00040884205DC07E0B5
:104C10000A483844B0F1D97F02D90AFA04F00543B2
:104C2000641C032CCCDB2846AFE7000030000020DA
:104C30000000C84154E3853F295C0F3E0000E0BE00
:104C400000B5024600F00DF80346D01C00F009F84C
:104C500043EAC003901D00F004F843EA801080B2DC
:104C600000BD90F90010002902DD4FF000007047F0
:104C700002DA4FF00400704790F90110002902DDBC
:104C80004FF00100704702DA4FF00500704790F9CD
:104C90000200002802DD4FF00200704702DA4FF0F8
:104CA000060070474FF0070070470000FCF718F847
:104CB000FEF75BF9FDF798FEFDF732FFFDF7DAFF2F
:104CC000FEF72EF8FDF784FFFDF74AFFFEF75EF8CA
:104CD000FEF790F8FEF77AF9FDF778FD00F050F94D
:104CE00000210846FDF700FD1E48FCF7ABFB002243
:104CF00011461720FCF752F81720FCF741F8002165
:104D00001948FDF73BF80C211748FDF737F83C210F
:104D10001648FCF7C7FC3C211548FCF7C3FC0821EA
:104D20001048FCF70BFE0C210E48FCF763FE012235
:104D300010491148FDF732FAFEF746F80FA1124864
:104D4000FBF766FA0C23104A03210120FEF7BAF89C
:104D50004FF4FA70FBF708FDFEF736F8FBF7ECFBB3
:104D6000FCE70000C801002080010020380100207D
:104D7000100200200500002058020020496E6974CE
:104D8000206973204F4B0000D000002070470000C6
:104D90002DE9F041124C20F00101002594F8240087
:104DA00010B10020BDE8F081A07A4FF0FF3668B165
:104DB0000840277C2074884200D0354641B101204C
:104DC00000F02AFF00F07EFB38B127743046E9E797
:104DD000207D00B1012000F01FFF2846E2E700001F
:104DE000300000202DE9F74F8EB00CA902A8CDE9C4
:104DF00000010BAB03AA09A907A8FFF77DF918B1B9
:104E0000012011B0BDE8F08FBDF80800C0057DD5C8
:104E1000039801F0C3FE6FF01D04214602F095F8DF
:104E20008246049801F0BAFE214602F08EF88146CF
:104E3000059801F0B3FE214602F087F880460698F7
:104E400001F0ACFE214602F080F8054601215046F3
:104E500002F07BF80646414601F0CCFE04464FF0D6
:104E60004041484601F0C6FE0746294601F0C2FE11
:104E7000214601F02DFD01F0FFFCFEF7D7FC4FF0BD
:104E8000663B5A463D4B01F01DFA00F017FF0E99A4
:104E900008600121404602F058F84146009001F0B8
:104EA000A9FE04463846494601F0A4FE214601F019
:104EB00077FF4FF07E5101F00BFD01F0DDFC07465E
:104EC0000C463046494601F095FE064629460098B4
:104ED00001F090FE314601F0FBFC01F0CDFC3A46BA
:104EE0002346FEF7EBFE5A46244B01F0EBF900F0A7
:104EF000E5FE0F9908602946084601F07BFE07464B
:104F00004146084601F076FE064600E034E0494698
:104F1000084601F06FFE04465146084601F06AFE5D
:104F2000214601F0D5FC314601F03AFF394601F047
:104F300037FF01F0A1FC06460C462946504601F019
:104F400059FE05464146484601F054FE294601F007
:104F5000BFFC012101F0F9FF01F08EFC324623462F
:104F6000FEF7ACFE5A46054B01F0ACF900F0A6FE88
:104F700010990860002044E7022042E766A64C40F2
:104F800010B5FDF7ABFA00F0EDF808B10A2010BD3E
:104F9000782000F07BFD10F0FF0F01D0012010BD44
:104FA0007820FFF7F5FE10F0FF0F01D0022010BDB2
:104FB000642000F02BFD10F0FF0F01D0032010BD86
:104FC000FFF790F810F0FF0F01D0042010BD124839
:104FD000FFF736FEFFF746FA10F0FF0F01D005206D
:104FE00010BD40F27310FEF755FF10F0FF0F01D017
:104FF000062010BD6420FFF79DF910F0FF0F01D0CF
:10500000072010BD00F0C8FD012000F025FC10F0C5
:10501000FF00F6D0092010BD5C0000200D494A7A3F
:1050200042B1012A08D0022A0FD0032A0FD04FF034
:10503000FF307047022200E004220270C97C11B1E7
:105040001106C90D0170002070470822F5E71022F3
:10505000F3E70000300000200F494A7A42B1012AEC
:1050600009D0022A11D0032A12D04FF0FF30704726
:105070004FF4804201E041F69C720280C97C11B17C
:10508000C2F34E010180002070474FF48052F4E7D4
:105090004FF40062F1E70000300000200B49097A6C
:1050A00039B1012907D002290AD003290BD00021E8
:1050B00003E0FA2101E04FF4FA710180002070470B
:1050C0004FF47A71F9E74FF4FA61F6E73000002007
:1050D0000A49097A41B1012908D002290AD00329D5
:1050E0000AD04FF0FF307047054900E005490160E4
:1050F000002070470449FAE70449F8E7300000202F
:1051000000000343000083423333034233338341BF
:105110000C49C97A072913D2DFE801F01204060A04
:105120000C0E1000BC2100E06221018000207047BD
:105130002A21FAE71421F8E70A21F6E70521F4E726
:105140000021F2E730000020054991F8242012B137
:105150004FF0FF307047C989018000207047000080
:10516000300000202DE9FC41464C80208DF80000E5
:1051700020686B460122817C60680078FDF70BFC9B
:105180004FF0FF37002875D16420FBF7EDFA0025BA
:105190008DF8005020686B460122817C60680078A1
:1051A000FDF7F9FB002865D120686B460622817D5A
:1051B00060680078FDF762FB00285BD19DF8050070
:1051C0009DF80310C007400F01F0010140EA4100C3
:1051D0009DF801104FF0010601F00101084304D0D1
:1051E000012831D0022810D044E020686B4601220B
:1051F000C17860680078FDF741FBD8BB9DF80000DE
:1052000010F00F0036D004281ED0E574FF2004F8FB
:105210000A0F4FF6FF7104F8020C04F8010C6070DD
:10522000A180A0712072A67026766576E572A572BF
:10523000E56025616561A576E576A5834FF4FA60A2
:1052400000F046FBB0B901E0E674DFE7022000F0B1
:1052500061FA78B92A2000F0A3FB58B9322000F097
:10526000D5FB38B90020FFF793FD18B9002000F0F6
:1052700085FA10B13846BDE8FC81002000F006FC3C
:105280000020F8E7300000202DE9FF4FDFF8948080
:10529000064685B098F8250015460F464FF0FF39B1
:1052A000B0BBAFB3002420E0301B102800DD10207D
:1052B00080B283463A1901469246204600F042FCED
:1052C00030BB6A465946204600F0D2F800BB504633
:1052D0005A466946FAF7B0FF20B16FF0010009B0F5
:1052E000BDE8F08F04EB0B0084B2B442DCD3280A93
:1052F0008DF810008DF81150D8F80000444604AB2A
:10530000817ED8F8040002220078FDF744FB08B142
:105310004846E4E7012084F825000898E08400204E
:10532000DDE70000300000202DE9F84305464FF08E
:10533000FF39282844D80727284C00267DB10120B2
:1053400000F0FCFA20208DF800004FF00108012D3C
:1053500017D0052D18D88DF8018005201FE00020FA
:1053600000F0ECFA8DF800608DF8017020686B4653
:105370000222817C60680078FDF70DFB00BB26757A
:1053800029E08DF80160E8E7142D04D802208DF89B
:1053900001000A2003E003208DF80100142000F032
:1053A000FFFA9DF801006B4607EB80108DF80100B5
:1053B00020680222817C60680078FDF7ECFA10B169
:1053C0004846BDE8F8830820A072267384F814804C
:1053D0000020FFF7DDFC0020F3E700003000002094
:1053E0002DE9F843214C0646174694F824008946D7
:1053F0004FF0FF3890B3A07A80B320686B4602224A
:10540000817A60680078FDF739FA38BBBDF8000092
:1054100045BAB54202D2002038701FE0606841886A
:10542000B5EB510F11D9216800786B46497C0122F8
:10543000FDF724FA90B99DF80000C00605D500F0EC
:1054400041F86FF00100BDE8F8832068F2B24B46E6
:10545000C17A60680078FDF711FA08B14046F2E7BA
:10546000B5FBF6F0401E38700020ECE7300000205D
:10547000F8B516000D464FF0FF371FD0104CA17A3B
:10548000E1B1010A8DF80010C0B28DF80100411998
:1054900060684289914211D8216800786B46097E84
:1054A0000222FDF778FA48B92068EAB23346417D16
:1054B00060680078FDF7E2F9002800D03846F8BDB2
:1054C00030000020F8B5564C4FF0FF36A07A002887
:1054D0007DD000258DF8005020686B460122C17BED
:1054E00060680078FDF757FA002870D120686B4695
:1054F0000122417960680078FDF74DFA002866D1F5
:1055000020686B460122017960680078FDF743FA54
:1055100000285CD194F82400E0B30C208DF8000042
:1055200020686B460122017960680078FDF733FA44
:10553000002872D13220FBF717F9C0208DF8000047
:10554000A07AC00702D0E0208DF8000020686B46EA
:105550000122017960680078FDF71DFA00285CD10E
:10556000607C18B102208DF8000001E08DF8005039
:1055700020686B460122C17B60680078FDF70BFA5A
:1055800028BB8DF8005020686B4601224179606885
:1055900000783EE0FFE704208DF8000020686B46AD
:1055A0000122017960680078FDF7F5F978B9A07CEF
:1055B00090B9A07AC0070FD05FF060008DF80000AE
:1055C00020686B46012201796068007800E024E0E1
:1055D000FDF7E1F908BB01E04020EFE73220FBF7DF
:1055E000C3F8607C18B101208DF8000001E08DF84F
:1055F000005020686B460122C17B60680078FDF78F
:10560000CAF950B92068064B01224179606810330D
:105610000078FDF7C0F9002800D03046F8BD000042
:10562000300000202DE9F047394C82468AB094F8CA
:1056300024000F4620B1002000F00EF9012600E002
:10564000002607A8FFF72AFD06A8FFF7E7FC09A830
:10565000FFF75EFD08A8FFF777FD94F80A9094F82D
:1056600010800025002239465046FFF7F5F810B1AA
:105670006D1C022DF6DB022D1AD00025012203A994
:105680006846FFF7E9F810B16D1C022DF6DB022D1C
:105690000ED003A93846FEF789F8C7B269465046CE
:1056A000FFF764FA10F0FF0F4FF0000502D002E0A0
:1056B000002503E001250FB945F00205FF20207207
:1056C0006072E0724FF6FF71E181A07220740120D8
:1056D0002073BDF81C0000F0FBF89DF8180000F0E6
:1056E00019F8BDF8240000F05BF9BDF8200000F0C7
:1056F0008DF9484600F0CAF94046FFF749FB16B15C
:10570000012000F0A9F80AB02846BDE8F0870000A3
:105710003000002038B5184C4FF0FF35A17A19B38E
:10572000022806D0042806D008280ED010281BD145
:105730000DE0002000E008208DF80000607A9DF860
:105740000010B0EBD10F04D005E01020F4E71820D2
:10575000F2E7002038BD20686B460122C1796068FD
:105760000078FDF718F908B1284638BD9DF800000B
:10577000C0086072EDE7000030000020F8B5354C3D
:105780000546A07CA84201D10020F8BD31484FF069
:10579000FF366B46D0E900104FF00102097900781E
:1057A00035B3FDF76BF870BB9DF800006B4620F039
:1057B00020008DF8000020680122017960680078DF
:1057C000FDF7E9F8F8B90320FAF7CEFF02208DF8CB
:1057D000000094F8220078B382202BE020686B460A
:1057E0000122017D60680078FDF7D5F858B92EE0F8
:1057F000FDF744F838B9A07AC0079DF8000003D03F
:1058000040F0200002E00CE020F020008DF80000C5
:1058100020686B460122017960680078FDF7BBF8CB
:1058200008B13046F8BD0320FAF79EFF94F8220035
:1058300000B180208DF8000094F823000028CDD01E
:105840009DF8000040F030008DF80000C6E7A57418
:105850009AE700003000002038B51C4C94F8241062
:1058600081421DD0002500B394F82500D0B100205E
:1058700000F0D2F90020FFF781FFE08C00F0C6F8BD
:105880008DF8005060686B46012200782321FDF7F7
:1058900082F8012084F8240000F0BEF9FFF712FE20
:1058A000002038BD4FF0FF3038BD002000F0B4F9C3
:1058B000207C8DF8000060686B460122007823216F
:1058C000FDF769F884F82450E8E700003000002074
:1058D00038B5194C4FF0FF35A17A31B3FA2809D009
:1058E000B0F5FA7F08D0B0F57A7F0FD0B0F5FA6F37
:1058F0001BD10DE0002000E008208DF80000207A88
:105900009DF80010B0EBD10F04D005E01020F4E7B3
:105910001820F2E7002038BD20686B46012281790B
:1059200060680078FDF737F808B1284638BD9DF863
:105930000000C0082072EDE73000002038B5174C99
:10594000054694F82300A84201D1002038BD0DB1CE
:10595000302000E000208DF80000A07C28B19DF8E8
:10596000000040F002008DF8000094F8220028B1F9
:105970009DF8000040F080008DF8000020686B4624
:105980000122017D60680078FDF705F810B14FF045
:10599000FF3038BD84F82350D7E7000030000020E6
:1059A00038B5194C4FF0FF35A17A31B3BC2801D37B
:1059B000012010E0622801D302200CE02A2801D344
:1059C000032008E0142801D3042004E00A2801D3AE
:1059D000052000E006208DF80000E07A9DF8001018
:1059E000884201D1002038BD20686B4601228178B1
:1059F00060680078FCF7CFFF08B1284638BD9DF8F5
:105A00000000E072EEE7000030000020F8B51E4D07
:105A100004464FF0FF37A87A48B395F8240030BB0E
:105A2000287D4FF47A7648B164B1282C03D8E0B2CF
:105A3000FFF77AFC26E00020FFF776FC042C05D265
:105A4000042406E00020FFF76FFCF9E7B44200D918
:105A50003446B6FBF4F0401E8DF8000028686B4613
:105A60000122417868680078FCF795FF08B1384654
:105A7000F8BD9DF80000401CB6FBF0F0E88140083E
:105A8000FFF78EFF0020F8BD30000020F8B5054676
:105A900010F0700F4FF0000601D0012004E015B1A6
:105AA0008DF8006002E040208DF80000244C6B4629
:105AB00001222068817C60680078FCF76CFF4FF061
:105AC000FF3760BB9DF8000020F0400020738DF888
:105AD0000060680602D404208DF80000A80605D4F2
